:020000040800F2
:1000000000000220810500086D0A00086F0A000840
:10001000710A0008730A0008750A00080000000051
:10002000000000000000000000000000770A000847
:10003000790A0008000000007B0A00087D0A000819
:10004000D1050008D1050008D1050008D105000838
:10005000D1050008D1050008D1050008D105000828
:10006000D1050008D1050008D1050008D105000818
:10007000D1050008D1050008D1050008D105000808
:10008000D1050008D1050008D105000800000000D6
:10009000000000000000000000000000D105000882
:1000A000D1050008D1050008D1050008D1050008D8
:1000B000D1050008D1050008D1050008D1050008C8
:1000C000D1050008D1050008D1050008D1050008B8
:1000D000D1050008850A0008D105000800000000CD
:1000E000D1050008D1050008D10500080000000076
:1000F000000000000000000000000000D105000822
:1001000000000000D1050008D1050008D105000855
:1001100000000000000000000000000000000000DF
:10012000950A0008D1050008A50A0008D1050008B5
:10013000D1050008000000000000000000000000E1
:10014000000000000000000000000000D1050008D1
:10015000D1050008D1050008B50A0008D10500083E
:10016000D1050008D10500080000000000000000D3
:10017000000000000000000000000000000000007F
:1001800000000000D1050008000000000000000091
:08019000D1050008D1050008AB
:1001A00010B5054C237833B9044B13B10448AFF3B1
:1001B00000800123237010BD7000002000000000AB
:1001C000382D000808B5034B1BB103490348AFF3B2
:1001D000008008BD0000000074000020382D0008D9
:1001E00053B94AB9002908BF00281CBF4FF0FF319E
:1001F0004FF0FF3000F072B9ADF1080C6DE904CE9C
:1002000000F006F8DDF804E0DDE9022304B07047F1
:100210002DE9F047089E04468846002B4BD18A42C0
:10022000154667D9B2FA82F24AB1C2F1200701FA43
:1002300002F320FA07F7954047EA030894404FEA93
:10024000154E230CB8FBFEF71FFA85FC0EFB178832
:1002500043EA084307FB0CF1994209D9EB1807F16F
:10026000FF3080F01B81994240F21881023F2B44FD
:100270005B1AA4B2B3FBFEF00EFB103344EA034456
:1002800000FB0CFCA44509D92C1900F1FF3380F0C8
:100290000781A44540F2048102382C4440EA07401B
:1002A000A4EB0C0400271EB1D4400023C6E9004390
:1002B0003946BDE8F0878B4209D9002E00F0EB806B
:1002C0000027C6E9000138463946BDE8F087B3FA91
:1002D00083F7002F47D18B4202D3824200F2FA808B
:1002E000841A61EB030301209846002EE0D0C6E992
:1002F0000048DDE702B9FFDEB2FA82F2002A40F0E0
:100300008F80491B4FEA154E1FFA85F80127B1FB74
:10031000FEFC230C0EFB1C1143EA014308FB0CF10D
:10032000994207D9EB180CF1FF3002D2994200F242
:10033000CD808446591AA3B2B1FBFEF00EFB101417
:1003400043EA044408FB00F8A04507D92C1900F142
:10035000FF3302D2A04500F2B6801846A4EB080491
:1003600040EA0C409FE7C7F1200CBB4022FA0CFE8C
:100370004EEA030E01FA07F420FA0CF521FA0CF309
:100380004FEA1E482543B3FBF8F92C0C08FB193340
:100390001FFA8EFA44EA034309FB0AF49C4202FA6C
:1003A00007F200FA07F10BD91EEB030309F1FF3046
:1003B00080F087809C4240F28480A9F10209734456
:1003C0001B1BADB2B3FBF8F008FB103345EA034446
:1003D00000FB0AFAA24508D91EEB040400F1FF3322
:1003E0006BD2A24569D90238744440EA0940A0FBA7
:1003F0000289A4EB0A044C45C2464B4654D351D063
:10040000002E69D0B1EB0A0564EB030404FA0CFC7E
:10041000FD40FC404CEA0505C6E90054002747E7CB
:10042000C2F1200320FA03F7954001FA02F021FA05
:1004300003F34FEA154E3843010CB3FBFEF71FFAE6
:1004400085F80EFB173341EA034107FB08F38B42A3
:1004500004FA02F407D9691807F1FF3C2FD28B4246
:100460002DD9023F2944CB1A81B2B3FBFEF00EFB1B
:10047000103341EA034100FB08F38B4207D96918A6
:1004800000F1FF3C17D28B4215D902382944C91A12
:1004900040EA07473BE73746304609E70746E7E6C5
:1004A0001846FBE64145ABD2B8EB020A69EB0E02F7
:1004B00001381346A4E76046E9E7184695E7674622
:1004C000D1E781467CE702382C4447E7ACF1020CC7
:1004D0002B442FE7384608E73746E9E6704700BF68
:1004E00001F0FF01102A2BDB10F0070F08D010F8E5
:1004F000013B013A8B422DD010F0070F42B3F6D1E9
:10050000F0B441EA012141EA014122F007047FF001
:1005100000070023F0E80256083C85EA010586EA58
:10052000010685FA47F5A3FA87F586FA47F6A5FA94
:1005300087F68EB9EED1F0BC01F0FF0102F00702A0
:1005400032B110F8013B013A83EA010313B1F8D14B
:100550000020704701387047002D06BF354603382C
:10056000073815F0010F07D1013015F4807F02BF65
:10057000013015F4C03F0130F0BC0138704700BFB6
:10058000DFF834D0002103E00C4B5B5843500431BA
:100590000B480C4B42189A42F6D30B4A02E0002358
:1005A00042F8043B094B9A42F9D300F08BFA01F070
:1005B00091FF00F04BF9704700000220BC2D0008AD
:1005C0000000002070000020700000205002002079
:1005D000FEE7000008B503460B4A126842B10A4A1A
:1005E000106803446A46934206D8074A136008BD60
:1005F000054A06491160F2E701F066FF0C2303602B
:100600004FF0FF30F3E700BF8C00002050020020C5
:1006100030B58BB00024059406940794089409948F
:100620000194214B1A6B42F004021A631A6B02F018
:1006300004020192019A02941A6B42F080021A633A
:100640001A6B02F080020292029A03941A6B42F033
:1006500001021A631A6B02F001020392039A0494D6
:100660001A6B42F002021A631B6B03F0020304933D
:10067000049B0E4D22462021284601F079F84FF4C4
:10068000005305930694079405A9094800F09EFFBE
:1006900020230593012306930794089405A928466F
:1006A00000F094FF0BB030BD003802400000024063
:1006B0000008024010B582B000240194114B1A6B5F
:1006C00042F480021A631B6B03F480030193019BC5
:1006D00022462146382000F003FD382000F034FD8A
:1006E000224621463A2000F0FBFC3A2000F02CFD87
:1006F00022462146462000F0F3FC462000F024FD6F
:1007000002B010BD0038024008B50848084B03602D
:100710004FF4E133436000238360C36003610C2224
:1007200042618361C36101F019FD08BDA801002089
:100730000010014030B585B000230093019302936F
:100740000393104C104A22604FF440326260A36061
:1007500001252561257684F82030E3620B4AA262E8
:10076000E360E56184F830506561204600F0BAFA34
:1007700006230093019502936946204600F0CCFBC6
:1007800005B030BD00010020002001400100000F35
:1007900000B58FB0064B1A88064901A801F0C6FEC5
:1007A000322201A9044801F009FD0FB05DF804FBF5
:1007B0009C000020702D0008A801002030B595B0E5
:1007C0003022002108A801F0A9FE0024039404941B
:1007D00005940694079401941A4B1A6C42F08052C7
:1007E0001A641B6C03F080530193019B0294164B17
:1007F0001A6842F440421A601B6803F440430293B3
:10080000029B0225089501230B9310230C930E9550
:100810000F9410934FF4A87311930423129313931E
:1008200008A800F0ABFF0F230393049505944FF441
:10083000805306930794294603A801F0D7F915B011
:1008400030BD00BF003802400070004008B500F025
:1008500083F9FFF7B3FFFFF7DBFEFFF72BFFFFF78F
:1008600053FFFFF767FF02220249034800F066FAD0
:10087000FEE700BF9C000020000100207047000040
:1008800000B583B0002100910C4B5A6C42F48042B9
:100890005A645A6C02F480420092009A01911A6CD8
:1008A00042F080521A641B6C03F080530193019B49
:1008B000072000F003FC03B05DF804FB00380240A1
:1008C00030B589B0002303930493059306930793EF
:1008D000026803F1804303F590339A4201D009B0D6
:1008E00030BD04460025019503F58C335A6C42F463
:1008F00080725A645A6C02F480720192019A0295D5
:100900001A6B42F001021A631B6B03F0010302939E
:10091000029B402303930323049303A9104800F090
:1009200055FE1048104B036045608560C5604FF46C
:10093000806303614FF4006343614FF400538361AC
:100940004FF48073C3610562456200F09DFC18B9E5
:10095000044BA3639C63C2E7FFF790FFF8E700BF77
:1009600000000240E80100201064024030B589B068
:10097000002303930493059306930793026803F1FE
:10098000804303F588339A4201D009B030BD044654
:100990000025019503F594335A6C42F010025A6415
:1009A0005A6C02F010020192019A02951A6B42F001
:1009B00001021A631B6B03F001030293029B4FF4C5
:1009C000C063039302230493012305930323069337
:1009D0000723079303A9204800F0F8FD1F48204B88
:1009E00003604FF0006343608560C5604FF480632F
:1009F000036145618561C5610562456200F044FCA3
:100A000018BB164B63639C631648174B03604FF08B
:100A100000634360402383600023C3604FF480621F
:100A2000026143618361C3610362436200F02CFC95
:100A300070B90C4B23639C6300221146252000F003
:100A40004FFB252000F080FB9FE7FFF717FFD8E75B
:100A5000FFF714FFEDE700BF00000240480100204F
:100A600040640240A0000020B86402407047FEE7E6
:100A7000FEE7FEE7FEE770477047704708B500F0F5
:100A800085F808BD08B5024801F086FC08BD00BF26
:100A9000A801002008B5024800F0AAFC08BD00BF6C
:100AA000E801002008B5024800F0A2FC08BD00BF24
:100AB0004801002008B5024800F09AFC08BD00BFBC
:100AC000A00000200F49D1F8883043F47003C1F82A
:100AD00088300D4B1A6842F001021A6000209860BD
:100AE0001A6822F0847222F480321A60074A5A602F
:100AF0001A6822F480221A60D8604FF000638B607D
:100B0000704700BF00ED00E00038024010300024C4
:100B100010B504460E4B18784FF47A73B3FBF0F31C
:100B20000C4A1068B0FBF3F000F01CFB68B90F2C06
:100B300001D901200AE0002221464FF0FF3000F0E9
:100B4000CFFA034B5C60002000E0012010BD00BF25
:100B5000040000200000002008B50B4B1A6842F486
:100B600000721A601A6842F480621A601A6842F4CD
:100B700080721A60032000F0A1FA0020FFF7C8FF7E
:100B8000FFF77EFE002008BD003C0240034A1168CA
:100B9000034B1B780B441360704700BF48020020D2
:100BA00004000020014B1868704700BF4802002075
:100BB0004A4B5A6822F440325A605A6841680A43E4
:100BC0005A600268536823F4807353600268536864
:100BD000016943EA012353600268536823F04073BC
:100BE00053600268536881680B43536002689368DE
:100BF00023F40063936002689368C1680B439360B9
:100C0000826A374B9A424BD00268936823F0706334
:100C1000936002689368816A0B43936002689368EB
:100C200023F04053936002689368C16A0B4393605A
:100C30000268936823F00203936002689368017E60
:100C400043EA4103936090F82030002B33D10268CF
:100C5000536823F4006353600268D36A23F470037B
:100C6000D3620168CB6AC269013A43EA0253CB629C
:100C70000268936823F4007393600268936890F8A5
:100C8000301043EA412393600268936823F4806341
:100C9000936002689368416943EA812393607047D7
:100CA0000268936823F0706393600268936823F08E
:100CB00040539360BCE70268536843F40063536099
:100CC0000268536823F46043536001684B68426ACA
:100CD000013A43EA42334B60BEE700BF00230140C4
:100CE0000100000F38B310B50446036C43B1236C08
:100CF00013F0100F0BD00120002384F83C3010BDFE
:100D0000FFF7DEFD0023636484F83C30EFE7236CDB
:100D100023F4885323F0020343F0020323642046A4
:100D2000FFF746FF00206064236C23F0030343F0C9
:100D300001032364E0E701207047000030B583B071
:100D40000023019390F83C30012B00F081800123B7
:100D500080F83C300468A36813F0010F13D1A36836
:100D600043F00103A3603F4B1C683F4BA3FB0434DB
:100D7000A40C04EB4404019402E0019C013C0194A6
:100D8000019C002CF9D103689C6814F0010F61D01C
:100D9000046C24F4E06424F0010444F480740464DA
:100DA0005B6813F4806F05D0036C23F4405343F465
:100DB00080530364036C13F4805F36D0436C23F0DC
:100DC0000603436413460446002280F83C20826BED
:100DD0002648D063A26B26481064A26B2548D064D5
:100DE00022686FF0220010602568686840F080601B
:100DF00068602568A86840F48070A86020680A468A
:100E000000F14C01A06B00F0A5FA1B4B5B6813F0DE
:100E10001F0F0DD123689A6812F0405F1DD19A68A8
:100E200042F080429A60002015E000234364C9E745
:100E30002368124A934201D000200CE09A6812F015
:100E4000405F0CD19A6842F080429A60002002E034
:100E5000022000E0002003B030BD0020FBE70020AE
:100E6000F9E700BF0000002083DE1B43A50E000849
:100E7000830E00088F0E000800230140002001406F
:100E8000704708B5806BFFF7FBFF08BD704708B5DA
:100E9000806B40230364436C43F004034364FFF717
:100EA000F5FF08BD08B5836B1A6C12F0500F26D100
:100EB0001A6C42F400721A641A68916811F0405F6B
:100EC00019D1197EB9B9D16A11F4700F03D09168A4
:100ED00011F4806F0FD1516821F0200151601A6C1C
:100EE00022F480721A641A6C12F4805F03D11A6CB7
:100EF00042F001021A641846FFF74AFC08BD1A6C5A
:100F000012F0100F03D19B6BDB6C9847F6E7184685
:100F1000FFF7BCFFF2E7000030B482B0002301937A
:100F200090F83C30012B00F0BD80012380F83C306C
:100F30000B68092B3ED90568EA689BB203EB4303B3
:100F40001E3B072404FA03F322EA0303EB6005685F
:100F5000EA688C680B8803EB43031E3B04FA03F337
:100F60001343EB604B68062B3AD805686A6B03EBBA
:100F70008303053B1F2404FA03F322EA03036B6394
:100F800005686A6B4B6803EB8303053B0C8804FA26
:100F900003F313436B630268434B9A4250D00268D9
:100FA000414B9A4259D0002380F83C30184602B099
:100FB00030BC704705682A699BB203EB43030724E2
:100FC00004FA03F322EA03032B6105682A698C689B
:100FD0000B8803EB430304FA03F313432B61C1E7CC
:100FE0000C2B16D805682A6B03EB8303233B1F24C5
:100FF00004FA03F322EA03032B6305682A6B4B68A8
:1010000003EB8303233B0C8804FA03F313432B63A2
:10101000C1E70568EA6A03EB8303413B1F2404FA36
:1010200003F322EA0303EB620568EA6A4B6803EB09
:101030008303413B0C8804FA03F31343EB62AAE7F2
:101040000B68122BABD1194B5A6822F400025A607C
:101050005A6842F480025A60A1E70B68144A93422E
:1010600001D0112B9FD1114B5A6822F480025A6093
:101070005A6842F400025A600A680D4B9A4292D1B3
:101080000C4B1B680C4AA2FB03239B0C03EB830352
:101090005A00019202E0019B013B0193019B002B4E
:1010A000F9D180E7022082E70020014000230140BF
:1010B000120000100000002083DE1B43074AD368A3
:1010C00023F4E0631B041B0C000200F4E0601843EF
:1010D00040F0BF6040F40030D060704700ED00E0A9
:1010E00030B4174BDB68C3F30223C3F10704042CAD
:1010F00028BF04241D1D062D18D9033B4FF0FF35D2
:1011000005FA04F421EA0401994005FA03F322EAFE
:101110000303194300280BDB0901C9B200F1604049
:1011200000F5614080F8001330BC70470023E5E70C
:1011300000F00F000901C9B2024B1954F4E700BFD7
:1011400000ED00E014ED00E0002807DB00F01F02D6
:10115000400901239340024A42F82030704700BF03
:1011600000E100E00138B0F1807F0AD2064B586000
:10117000064AF02182F823100020986007221A60A6
:1011800070470120704700BF10E000E000ED00E074
:1011900030B405682C6824F480242C6004686360F3
:1011A0008368402B05D0036899600368DA6030BC1F
:1011B000704703689A600368D960F8E70268D3B2A1
:1011C000103B0B49A1FB03131B090A49C95CC1650C
:1011D000032B06D822F47F7222F003028265806D11
:1011E000704722F47F7222F0030204328265F6E730
:1011F000ABAAAAAA682D0008836A826992B9012B5A
:101200000AD01BB1022B01D000207047C36A13F033
:10121000807F2CD100207047C36AB3F1C07F28D0F3
:1012200000207047B2F5005F05D0022B29D9032BAF
:1012300015D000207047032B03D8DFE803F01C040F
:101240001C0A00207047C36A13F0807F15D100206C
:101250007047C36AB3F1C07F11D000207047C36AE2
:1012600013F0807F01D001207047002070470120DB
:10127000704701207047012070470120704701200E
:10128000704701207047000070B50446FFF78AFCE4
:10129000002C5BD00546002384F83430022384F808
:1012A00035302268136823F00103136023681A683D
:1012B00012F0010F0AD0FFF775FC401B0528F5D985
:1012C00020236365032084F8350070BD1A68204828
:1012D00010406168A2680A43E1680A4321690A4331
:1012E00061690A43A1690A43E1690A43216A0A4321
:1012F0000243616A04291ED01A602668756925F0C8
:101300000705636A1D43042B07D1A36A1D43E36AE3
:101310001BB12046FFF770FF90B975612046FFF7BB
:101320004DFFE26D3F239340836000206065012301
:1013300084F83530C9E7E16A206B01430A43DBE7F3
:1013400040236365012084F83500BEE70120BCE737
:101350003F8010F038B5856D90F83440012C31D0C5
:10136000012480F8344090F83540E4B2012C04D0D8
:10137000002380F83430022038BD0446022084F86F
:101380003500002060652046FFF702FFE26D3F2335
:101390009340AB602268136843F016031360226821
:1013A000536943F080035361236C23B122681368AF
:1013B00043F0080313602268136843F001031360CD
:1013C0000020D9E70220D7E790F83530DBB2022BB6
:1013D00003D08023436501207047052380F8353012
:1013E0000268136823F001031360002070470000B7
:1013F000F0B583B0044600230193724B1D68724B15
:10140000A3FB0535AD0A876D3E68C26D0823934086
:10141000334210D003681A6812F0040F0BD01A6818
:1014200022F004021A60C26D08239340BB60436D32
:1014300043F001034365E26D01239340334209D039
:101440002268526912F0800F04D0BB60636D43F0D4
:1014500002036365E26D04239340334209D022689E
:10146000126812F0020F04D0BB60636D43F00403F6
:101470006365E26D10239340334224D022681268E2
:1014800012F0080F1FD0BB6023681A6812F4802F77
:101490000DD01B6813F4002F04D1236C9BB12046A0
:1014A000984710E0A36C73B1204698470BE01A6888
:1014B00012F4807F03D11A6822F008021A60236CAC
:1014C0000BB120469847E26D20239340334255D01C
:1014D0002268126812F0100F50D0BB6094F83530BB
:1014E000DBB2052B0ED023681A6812F4802F33D09C
:1014F0001B6813F4002F2AD1636C002B3ED02046CA
:1015000098473BE02268136823F0160313602268B3
:10151000536923F080035361236CA3B122681368DD
:1015200023F008031360E26D3F239340BB60002368
:1015300084F83430012384F83530236D002B3FD0FC
:10154000204698473CE0A36C002BE7D1EBE7E36B28
:10155000A3B12046984711E01A6812F4807F09D1A0
:101560001A6822F010021A60002384F83430012334
:1015700084F83530E36B0BB120469847636DFBB1BF
:10158000636D13F0010F17D0052384F835302268FE
:10159000136823F001031360019B01330193AB42F5
:1015A00004D823681B6813F0010FF5D1002384F8D9
:1015B0003430012384F83530E36C0BB12046984772
:1015C00003B0F0BD00000020B5814E1B00230F2B9F
:1015D00000F2C580F0B482B039E0042200E00022BD
:1015E000B2403A4302345E4E46F824205D4A146805
:1015F000EA4302EA04064F6817F4803F01D045EA47
:101600000406584C2660646802EA04064F6817F422
:10161000003F01D045EA0406524C6660A46802EA25
:1016200004064F6817F4801F01D045EA04064D4CAC
:10163000A660E46822404E6816F4001F01D045EA17
:101640000402484CE26001330F2B00F28580012236
:101650009A400C6804EA0205AA42F4D14C68022CB4
:1016600001D0122C10D1DE08083650F826C003F045
:101670000704A7000F24BC402CEA040C0C69BC40F2
:1016800044EA0C0440F8264004685F000326BE408C
:10169000F64306EA040C4C6804F00304BC4044EA38
:1016A0000C0404604C6804F1FF3CBCF1010F03D949
:1016B000112C01D0122C10D1846806EA040CCC68DD
:1016C000BC4044EA0C048460446824EA02024C688A
:1016D000C4F300149C4014434460C26816408A68F6
:1016E000BA403243C2604A6812F0805FABD0002239
:1016F00001921D4A546C44F480445464526C02F4C8
:1017000080420192019A9C08A61C154A52F8267044
:1017100003F0030296000F22B24027EA0207134AA1
:1017200090423FF45CAF02F5806290420ED002F529
:10173000806290420CD002F5806290420AD002F59D
:10174000806290423FF449AF072249E7012247E710
:10175000022245E7032243E702B0F0BC704770471E
:1017600000380140003C01400038024000000240C7
:1017700012B909048161704781617047002800F047
:10178000BB8170B582B00446036813F0010F3BD0F3
:10179000A74B9B6803F00C03042B2CD0A44B9B6835
:1017A00003F00C03082B21D06368B3F5803F4FD0C2
:1017B000B3F5A02F52D09E4B1A6822F480321A60E3
:1017C0001A6822F480221A606368002B50D0FFF759
:1017D000E9F90546964B1B6813F4003F14D1FFF757
:1017E000E1F9401B6428F5D903208AE1904B5B683E
:1017F00013F4800FD8D08E4B1B6813F4003F03D036
:101800006368002B00F07A81236813F0020F55D033
:10181000874B9B6813F00C0F3ED0854B9B6803F001
:101820000C03082B33D0E368002B68D0814B0122D6
:101830001A60FFF7B7F905467D4B1B6813F0020FDE
:1018400054D1FFF7AFF9401B0228F5D9032058E126
:10185000774A136843F480331360B5E7744B1A6812
:1018600042F480221A601A6842F480321A60ABE7B0
:10187000FFF798F905466E4B1B6813F4003FC3D081
:10188000FFF790F9401B6428F5D9032039E1684B34
:101890005B6813F4800FC6D1654B1B6813F0020F11
:1018A00004D0E368012B01D001202AE1604A1368CB
:1018B00023F0F803216943EAC1031360236813F09E
:1018C000080F40D0636963B35B4B01221A60FFF7D6
:1018D00069F90546564B5B6F13F0020F33D1FFF7E2
:1018E00061F9401B0228F5D903200AE1504A136828
:1018F00023F0F803216943EAC1031360DEE74D4B8F
:1019000000221A60FFF74EF90546494B1B6813F099
:10191000020FD3D0FFF746F9401B0228F5D9032068
:10192000EFE0454B00221A60FFF73CF90546404BBB
:101930005B6F13F0020F06D0FFF734F9401B02284B
:10194000F5D90320DDE0236813F0040F79D0384B7C
:101950001B6C13F0805F33D100230193344B1A6C5E
:1019600042F080521A641B6C03F080530193019B78
:101970000125324B1B6813F4807F23D0A368012B11
:1019800034D0052B38D02A4B1A6F22F001021A6787
:101990001A6F22F004021A67A368002B36D0FFF7F3
:1019A00001F90646224B1B6F13F0020F48D1FFF7D7
:1019B000F9F8801B41F288339842F3D90320A0E064
:1019C0000025D6E71D4A136843F480731360FFF7C0
:1019D000E9F80646194B1B6813F4807FCED1FFF758
:1019E000E1F8801B0228F5D903208AE0104A136F22
:1019F00043F001031367CFE70D4B1A6F42F0040267
:101A00001A671A6F42F001021A67C5E7FFF7CAF8B2
:101A10000646074B1B6F13F0020F11D0FFF7C2F8F9
:101A2000801B41F288339842F3D9032069E000BF5C
:101A30000038024000004742800E474200700040DC
:101A4000E5B9A369002B5BD0304A926802F00C0222
:101A5000082A58D0022B17D02D4B00221A60FFF70E
:101A6000A1F80446294B1B6813F0007F42D0FFF712
:101A700099F8001B0228F5D9032042E0234A136C91
:101A800023F080531364DCE7214B00221A60FFF738
:101A900089F805461D4B1B6813F0007F06D0FFF741
:101AA00081F8401B0228F5D903202AE0E369226A65
:101AB0001343626A43EA8213A26A5208013A43EA74
:101AC0000243E26A43EA0263104A5360104B012268
:101AD0001A60FFF767F804460C4B1B6813F0007F91
:101AE00006D1FFF75FF8001B0228F5D9032008E0B4
:101AF000002006E0002004E001207047012000E003
:101B0000002002B070BD0120FBE700BF003802409A
:101B100060004742324B9B6803F00C03042B5CD0FF
:101B2000082B01D02F4870472DE9F04B2C4B5A68F9
:101B300002F03F025B6813F4800F2BD0284B5B68E8
:101B4000C3F388131E4600275C010025E41A65EBE9
:101B50000705A90141EA9461A001001B61EB0501A1
:101B6000CB0043EA5073C400A01943EB07014B02BA
:101B700043EAD0534402204619460023FEF730FBC7
:101B8000174B5B68C3F3014301335B00B0FBF3F019
:101B9000BDE8F08B124B5B68C3F388131E46002729
:101BA0005C010025E41A65EB0705A90141EA94618F
:101BB000A001001B61EB0501CB0043EA5073C40098
:101BC000A01943EB07018B0243EA9053840220469D
:101BD00019460023FEF704FBD2E70348704700BF15
:101BE000003802400024F40000127A00002800F0BF
:101BF0009D8070B504464F4B1B6803F00F038B426A
:101C000009D2CBB24B4A1370136803F00F038B4217
:101C100001D0012070BD236813F0020F17D013F01C
:101C2000040F04D0444A936843F4E053936023685C
:101C300013F0080F04D0404A936843F46043936064
:101C40003D4A936823F0F003A068034393600D4678
:101C5000236813F0010F32D06368012B21D09A1E44
:101C6000012A25D9344A126812F0020F60D0324995
:101C70008A6822F0030213438B60FEF793FF064647
:101C80002D4B9B6803F00C036268B3EB820F16D0F8
:101C9000FEF788FF801B41F288339842F0D9032079
:101CA000B8E7254A126812F4003FE0D10120B1E7FD
:101CB000214A126812F0007FD9D10120AAE71D4BFA
:101CC0001B6803F00F03AB4209D9EAB2194B1A7033
:101CD0001B6803F00F03AB4201D001209AE7236891
:101CE00013F0040F06D0144A936823F4E053E1681C
:101CF0000B439360236813F0080F07D00E4A9368D4
:101D000023F46043216943EAC1039360FFF702FFB4
:101D1000094B9B68C3F30313084AD35CD840084BB4
:101D200018600020FEF7F4FE002073E701207047E2
:101D300001206FE7003C024000380240502D0008AF
:101D400000000020014B1868704700BF0000002011
:101D500008B5FFF7F7FF044B9B68C3F38223034AE0
:101D6000D35CD84008BD00BF00380240602D000899
:101D700008B5FFF7E7FF044B9B68C3F34233034A00
:101D8000D35CD84008BD00BF00380240602D000879
:101D90000268D36823F0C003D360202380F8393071
:101DA00070470268D36823F49073D3600268536964
:101DB00023F001035361202380F83A30704790F8F4
:101DC0003930DBB2212B2AD18368B3F5805F16D07E
:101DD000036A5A1C02621A7803685A60C38C013B7A
:101DE0009BB2C384EBB90268D36823F08003D3604D
:101DF0000268D36843F04003D36000207047036A51
:101E00001B880268C3F30803536003691BB9036AA4
:101E100002330362E2E7036A01330362DEE7022072
:101E200070470020704700002DE9F843044602681F
:101E3000136923F44053C1680B431361836802693B
:101E4000134342691343C2691A430168CB6823F400
:101E5000164323F00C031343CB600268536923F449
:101E6000407381690B435361C369B3F5004F60D080
:101E70000368B84A934200F0148102F580629342ED
:101E800000F00F81FFF764FF00EB800000EB8000A3
:101E90006568AD00B0FBF5F5AF4FA7FB05356D09E3
:101EA0002E01FFF755FF00EB800000EB8000656816
:101EB000AD00B0FBF5F9FFF74BFF00EB800000EB46
:101EC00080006568AD00B0FBF5F5A7FB05356D0931
:101ED0004FF0640808FB15952D013235A7FB053539
:101EE0006D0905F0F0053544FFF732FF00EB800087
:101EF00000EB80006668B600B0FBF6F6FFF728FF3F
:101F000000EB800000EB800063689B00B0FBF3F007
:101F1000A7FB0030400908FB10684FEA081808F1D9
:101F20003208A7FB0837C7F3431723682F449F6085
:101F30000DE10368874A93425BD002F580629342C9
:101F400057D0FFF705FF00EB800000EB80006568CD
:101F50006D00B0FBF5F5804FA7FB05356D092E012F
:101F6000FFF7F6FE00EB800000EB800065686D0077
:101F7000B0FBF5F9FFF7ECFE00EB800000EB800012
:101F800065686D00B0FBF5F5A7FB05356D094FF0F1
:101F9000640808FB1595ED003235A7FB05356D0982
:101FA0006D0005F4F8753544FFF7D2FE00EB8000B4
:101FB00000EB800066687600B0FBF6F6FFF7C8FE1F
:101FC00000EB800000EB800063685B00B0FBF3F384
:101FD000A7FB03235B0908FB13684FEAC80808F155
:101FE0003208A7FB0837C7F3421723682F449F60C6
:101FF000ADE0FFF7BDFE00EB800000EB8000656800
:102000006D00B0FBF5F5544FA7FB05356D092E01AA
:10201000FFF7AEFE00EB800000EB800065686D000E
:10202000B0FBF5F9FFF7A4FE00EB800000EB8000A9
:1020300065686D00B0FBF5F5A7FB05356D094FF040
:10204000640808FB1595ED003235A7FB05356D09D1
:102050006D0005F4F8753544FFF78AFE00EB80004B
:1020600000EB800066687600B0FBF6F6FFF780FEB6
:1020700000EB800000EB800063685B00B0FBF3F3D3
:10208000A7FB03235B0908FB13684FEAC80808F1A4
:102090003208A7FB0837C7F3421723682F449F6015
:1020A00055E0FFF765FE00EB800000EB80006568FF
:1020B000AD00B0FBF5F5284FA7FB05356D092E01E6
:1020C000FFF756FE00EB800000EB80006568AD0076
:1020D000B0FBF5F9FFF74CFE00EB800000EB800051
:1020E0006568AD00B0FBF5F5A7FB05356D094FF050
:1020F000640808FB15952D013235A7FB05356D09E0
:1021000005F0F0053544FFF733FE00EB800000EBEF
:1021100080006668B600B0FBF6F6FFF729FE00EB1C
:10212000800000EB800063689B00B0FBF3F0A7FB2E
:102130000030400908FB10684FEA081808F132081F
:10214000A7FB0837C7F3431723682F449F60BDE8F8
:10215000F88300BF001001401F85EB5158B310B544
:10216000044690F839300BB3242384F839302268C0
:10217000D36823F40053D3602046FFF755FE22684E
:10218000136923F4904313612268536923F02A03EF
:1021900053612268D36843F40053D3600020E063A6
:1021A000202384F8393084F83A3010BD80F8383074
:1021B000FEF7DCFBD8E701207047000038B590F847
:1021C0003940E4B2202C31D1002931D0002A31D05D
:1021D00090F83830012B2FD013460446012280F8A6
:1021E000382001628384C3840025C563212280F8DE
:1021F0003920026B1148D063226B11481064226BA6
:102200001048D064226B156522680432206BFFF7FA
:10221000A1F823686FF040021A6084F838502268F1
:10222000536943F080035361284600E0022038BD23
:102230000120FCE70120FAE70220F8E74B22000822
:102240009722000841230008704708B5836B026895
:10225000126812F4807F0CD10022DA8419684A696E
:1022600022F080024A611A68D36843F04003D360C9
:1022700008BD1846FFF7E8FFFAE708B50168CB6824
:1022800023F04003CB60202380F83930FFF7DCFFD8
:10229000002008BD704708B5806BFFF7FBFF08BD45
:1022A000704708B590F83A30DBB2222B45D18368ED
:1022B000B3F5805F0ED0036903BB03685A68836A75
:1022C000591C81621A70C38D013B9BB2C385F3B167
:1022D000002033E0826A036943B903685B68C3F393
:1022E00008031380836A02338362ECE703685B6848
:1022F000DBB21380836A01338362E4E703685B68BF
:10230000826A511C816203F07F031370DBE702686D
:10231000D36823F02003D3600268D36823F480736A
:10232000D3600268536923F001035361202380F8CE
:102330003A30FFF7B5FF002000E0022008BD7047EB
:1023400010B5846B23685A6994F83930DBB2212BBD
:1023500010D023685A6902F0400294F83A30DBB298
:10236000222B11D0E36B43F01003E3632046FFF709
:10237000E6FF10BD02F08002002AEAD00023E384C9
:102380002046FFF705FDE4E7002AEBD00023E385B4
:102390002046FFF706FDE5E710B50446026813681E
:1023A000D168526913F00F0005D113F0200F02D04D
:1023B00011F0200F53D1002867D012F0010202D192
:1023C00011F4907F61D013F0010F06D011F4807FDB
:1023D00003D0E06B40F00100E06313F0040F04D081
:1023E0001AB1E06B40F00200E06313F0020F04D07A
:1023F0001AB1E06B40F00400E06313F0080F04D062
:102400001AB1E26B42F00802E263E26B002A48D0A4
:1024100013F0200F02D011F0200F24D123685B6944
:1024200003F04003E26B12F0080F00D13BB32046EB
:10243000FFF7B7FC23685A6912F0400F1BD05A69A6
:1024400022F040025A61636B8BB11A4A1A65606BC5
:10245000FEF7BAFF28B3606B036D984721E0204672
:10246000FFF71FFF1DE02046FFF71BFFD6E72046C2
:10247000FFF765FF15E02046FFF761FF11E02046FA
:10248000FFF75DFF0023E3630BE013F0800F02D042
:1024900011F0800F06D113F0400F02D011F0400F61
:1024A00004D110BD2046FFF78AFCFAE72046FFF76B
:1024B000E4FEF6E7B924000808B5806B0023C38565
:1024C000C384FFF73CFF08BD014B1868704700BF8D
:1024D0000C00002070B50D4E0D4CA41BA41000255F
:1024E000A54209D10B4E0C4C00F026FCA41BA410F5
:1024F0000025A54205D170BD56F825309847013515
:10250000EEE756F8253098470135F2E7B42D00087C
:10251000B42D0008B42D0008B82D0008024403466D
:10252000934200D1704703F8011BF9E70EB400B5E0
:102530009CB01DAB029006906FF0004109480791D6
:102540000491094953F8042B05910068019302A9ED
:1025500000F066F8029B00221A701CB05DF804EBD4
:1025600003B070470C0000200802FFFF2DE9F04780
:102570008E689E4282460C469046994637D88A8994
:1025800012F4906F31D0256809696F1A65690223CA
:1025900005EB450595FBF3F509F101033B449D422D
:1025A00038BF1D46530530D5294600F02BFB0646A3
:1025B00050B90C23CAF80030A38943F04003A3812B
:1025C0004FF0FF30BDE8F0873A46216900F0A8FAE5
:1025D000A38923F4906343F08003A381266165619E
:1025E0003E44ED1B2660A5604E464E4500D94E4642
:1025F00032464146206800F09EFAA3689B1BA36008
:1026000023681E4426600020DCE72A4600F054FBC5
:1026100006460028E2D12169504600F0A5FAC8E735
:102620002DE9F04F1D468B891F069DB080460C4654
:1026300016460FD50B696BB9402100F0E3FA206014
:10264000206128B90C23C8F800304FF0FF30C8E0F3
:10265000402363610023099320238DF82930302320
:102660008DF82A3003954FF0010B37463D4615F89B
:10267000013B0BB1252B3ED1B7EB060A0BD05346DD
:10268000324621464046FFF771FF013000F0A4803A
:10269000099B534409933B78002B00F09D80002355
:1026A0004FF0FF32CDE90523049307938DF85330A3
:1026B0001A932F46052217F8011B5048FDF710FF0B
:1026C000049BD0B9D90644BF20228DF853201A07A5
:1026D00044BF2B228DF853202A782A2A15D0079A36
:1026E0002F4600200A25394611F8013B303B092BC3
:1026F0004DD9B8B10FE02F46B8E7404A801A0BFA1F
:1027000000F0184304903D46D3E7039A111D126868
:102710000391002A01DB079204E0524243F00203D6
:10272000079204933B782E2B0CD17B782A2B33D144
:10273000039B1A1D1B680392002BB8BF4FF0FF3399
:10274000023705932E4D397803222846FDF7C8FE3F
:1027500038B14023401B03FA00F0049B03430137C8
:102760000493397827488DF8281006227E1CFDF73F
:10277000B7FE002838D0244B13BB039B073323F04C
:10278000070308330393099B4B4409936DE705FB4B
:10279000023201200F46A6E70023013705931946B0
:1027A0000A25384610F8012B303A092A03D9002BA4
:1027B000C8D00591C6E705FB012101230746F0E7D4
:1027C00003AB00932246114B04A94046AFF30080AF
:1027D000B0F1FF3F8146D6D1A3895B063FF535AF07
:1027E00009981DB0BDE8F08F03AB00932246074B5C
:1027F00004A9404600F082F8EAE700BF782D0008FF
:102800007E2D0008822D0008000000006D250008C4
:102810002DE9F04791461F468A680B69DDF8208054
:102820009342B8BF1346C9F8003091F843200646DA
:102830000C4612B10133C9F800302368990642BF33
:10284000D9F800300233C9F80030256815F00605C4
:1028500007D104F1190AE368D9F800209B1AAB42AA
:1028600028DC94F843302268003318BF0123920615
:102870002DD404F1430239463046C047013020D000
:102880002368E568D9F8002003F00603042B08BF8D
:10289000AD1AA36822690CBF25EAE57500259342AD
:1028A000C4BF9B1AED184FF000091A344D451AD1D8
:1028B000002008E00123524639463046C047013027
:1028C00003D14FF0FF30BDE8F0870135C3E7E118D1
:1028D0005A1C302081F84300224494F8451082F8B5
:1028E00043100233C5E70123224639463046C0472C
:1028F0000130E6D009F10109D8E700002DE9F043E5
:1029000001F1430C0C46097E85B06E291746064638
:1029100098460C9A00F0B38022D8632936D00AD8A2
:10292000002900F0B980582900F0838004F14205A5
:1029300084F8421032E0642901D06929F6D1206878
:102940001368050603F104012AD51B681160002BEA
:1029500003DA2D225B4284F843206F480A2239E0D3
:10296000732900F09D8008D86F2920D07029DDD10F
:10297000236843F02003236003E0752917D07829EA
:10298000D4D1782384F84530644855E01368191D84
:102990001B68116004F1420584F8423001238CE089
:1029A0001B68116010F0400F18BF1BB2CFE713680F
:1029B0002568181D1060280601D51B6802E068060E
:1029C000FBD51B8854486F2914BF0A220822002116
:1029D00084F843106568A560002DC0F295802168D9
:1029E00021F004012160002B3DD1002D40F08E80AC
:1029F0006546082A0BD12368DB0708D5236962687E
:102A00009A42DEBF302305F8013C05F1FF35ACEBFF
:102A100005032361CDF800803B4603AA21463046DA
:102A2000FFF7F6FE01304DD14FF0FF3005B0BDE8A5
:102A3000F083394884F84510136821681D1D1B6810
:102A400015600A060BD5CA0744BF41F0200121607A
:102A50001BB9226822F0200222601022B7E74D063F
:102A600048BF9BB2EFE76546B3FBF2F102FB1133BF
:102A7000C35C05F8013D0B460029F5D1B9E71368A1
:102A800025686169181D106028061B6801D519604A
:102A900002E06A06FBD51980002323616546B9E789
:102AA0001368191D11601D68626800212846FDF732
:102AB00017FD08B1401B606063682361002384F840
:102AC0004330A7E723692A4639463046C0470130DC
:102AD000AAD023689B0713D4E068039B9842B8BF31
:102AE0001846A3E701234A4639463046C04701301D
:102AF0009AD00135E368039A9B1AAB42F2DCEBE70C
:102B0000002504F11909F5E7002BACD1037884F80E
:102B1000423004F142056CE7892D00089A2D000827
:102B200010B5431E0A44914200D110BD11F8014B6B
:102B300003F8014FF7E7884210B501EB020307D80D
:102B4000421E99420AD011F8014B02F8014FF8E7F2
:102B50008342F5D98118D21AD34200D110BD13F89F
:102B6000014D01F8014DF7E738B50546002945D07C
:102B700051F8043C0C1F002BB8BFE41800F0D2F849
:102B80001F4A1368104633B9636014602846BDE8D5
:102B9000384000F0C8B8A3420CD9216862189342AB
:102BA00004BF1A685B68636004BF52182260046047
:102BB000ECE713465A680AB1A242FAD919685818C4
:102BC000A0420BD120680144581882421960DDD11F
:102BD000106852685A6001441960D7E702D90C2383
:102BE0002B60D3E7206821188A4204BF116852681D
:102BF000626004BF091821605C60C7E738BD00BF90
:102C00009400002070B5CD1C25F0030508350C2D6F
:102C100038BF0C25002D064601DBA94203D90C2341
:102C20003360002070BD00F07DF8214A1468214611
:102C300091B9204C23681BB9304600F063F820603E
:102C40002946304600F05EF8431C24D10C23336043
:102C5000304600F068F8E4E70B685B1B18D40B2BD8
:102C60000FD90B60CD50CC18304600F05CF804F161
:102C70000B00231D20F00700C31AD3D05A42E250A4
:102C8000D0E78C424B6816BF636013600C46EBE7DD
:102C90000C464968CCE7C41C24F00304A04205D0CC
:102CA000211A304600F02EF80130CFD02560DBE746
:102CB0009400002098000020F8B5074614460E4600
:102CC00021B91146BDE8F840FFF79CBF22B9FFF7D4
:102CD0004BFF25462846F8BD00F026F8A0420FD24B
:102CE00021463846FFF78EFF05460028F2D03146D0
:102CF0002246FFF715FF31463846FFF735FFE9E773
:102D00003546E7E738B5064C0023054608462360FC
:102D1000FDF760FC431C02D1236803B12B6038BD72
:102D20004C0200207047704751F8043C181F002BDC
:102D3000BCBF0B58C0187047F8B500BFF8BC08BC42
:102D40009E467047F8B500BFF8BC08BC9E46704769
:102D5000000000000000000001020304060708094B
:102D60000000000001020304000610160006101601
:102D70002564200D0A000000232D302B2000686CF4
:102D80004C0065666745464700303132333435368E
:102D900037383941424344454600303132333435C7
:0C2DA000363738396162636465660000F4
:082DAC0064D4FF7F0100000068
:042DB400C50100084D
:042DB800A10100086D
:102DBC000024F400010000001000000010000020AE
:102DCC0000000000000000000000000000000000F7
:102DDC0000000000000000000000000000000000E7
:102DEC0000000000000000000000000000000000D7
:102DFC0000000000000000000000000000000000C7
:102E0C0000000000000000000000000000000000B6
:102E1C0000000000000000000000000000000000A6
:040000050800058169
:00000001FF
